:020000040800F2
:10000000C8810020AD010008FB1E0008D91C0008B3
:10001000F91E0008C1020008B12700080000000016
:10002000000000000000000000000000A9200008FF
:10003000D102000800000000FD1E0008AD200008ED
:10004000C7010008C7010008C7010008C701000870
:10005000C7010008C7010008C7010008C701000860
:10006000C7010008C7010008C7010008C701000850
:10007000C7010008C5020008C7010008C701000841
:10008000C7010008C7010008C7010008C701000830
:10009000C7010008C7010008C7010008C701000820
:1000A000C7010008C7010008C7010008C701000810
:1000B000C7010008C701000800000000C7010008D0
:1000C000C7010008C7010008C7010008C7010008F0
:1000D000C7010008C7010008A5270008C7010008DC
:1000E000D3020008C7010008000000000000000063
:1000F0000000000000000000000000000000000000
:1001000000000000C701000800000000C70100084F
:10011000C701000800000000C7010008000000003F
:10012000C7010008C7010008C7010008C70100088F
:10013000C7010008C7010008C7010008000000004F
:10014000C7010008C7010008C7010008C70100086F
:10015000C7010008C7010008C7010008C70100085F
:10016000C7010008C7010008C7010008000000001F
:1001700000000000C70100080000000000000000AF
:10018000C7010008C7010008C7010008C70100082F
:10019000C7010008DFF810D000F080F800480047E1
:1001A000F52A0008AFF30080C88100200648804788
:1001B00006480047FEE7FEE7FEE7FEE7FEE7FEE74C
:1001C000FEE7FEE7FEE7FEE735210008950100089F
:1001D0002DE9F05F0546002092469B46884606467C
:1001E000814640241BE0284641464746224600F00F
:1001F00044F853465A46C01A914110D31146184646
:10020000224600F02BF82D1A67EB01084F462246D4
:100210000120002100F022F817EB00094E41201EBA
:10022000A4F10104DFDC484631462A46434600F08B
:1002300000B830BCBDE8C09FD2B201E000F8012B8D
:10024000491EFBD270470022F6E710B513460A4656
:1002500004461946FFF7F0FF204610BD202A04DBB4
:10026000203A00FA02F1002070479140C2F12003C9
:1002700020FA03F3194390407047202A04DB203A08
:1002800021FA02F00021704721FA02F3D040C2F1B6
:10029000200291400843194670470000064C074D64
:1002A00006E0E06840F0010394E807009847103446
:1002B000AC42F6D3FFF772FF642C0008842C0008D0
:1002C000FEE70000014800F0CBB80000FC00002071
:1002D00070474FF4005000F0B1B972B6FEE7F0B5C8
:1002E000044600201E23012601E05B1E05D303F017
:1002F0001F0706FA07F50D42F7D072B1082A0AD097
:10030000102A05D0182A01D1072B06D30120F0BDF1
:10031000082BFBD201E0102BF8D223685961216829
:100320008B6823F0180313438B60F0BD10B50400F5
:1003300010D0607F20B900202077204600F030F8F0
:1003400002206077207938B1D4E902122046FFF705
:10035000C6FF48B1012010BD2168104848612068DF
:10036000816821F0180181606079A0B1206921685D
:10037000086120688168626921F060011143816031
:1003800020688168A26921F0800111438160012009
:100390006077002010BD4FF0FF30E8E7B71DC104C3
:1003A00008B500680649884208D10648816C41F4C6
:1003B00080518164806C00F48050009008BD000082
:1003C000003002400010024010B590F825100022C5
:1003D000022905D00421C16380F82420012010BD2A
:1003E00001680B6823F00E030B6001680B6823F0B3
:1003F00001030B6090F84410046C01F01C03012110
:1004000001FA03F3636080F8251080F82420104679
:1004100010BD10B590F825100024022903D0042146
:10042000C16301241AE001680A6822F00E020A6022
:1004300001680A6822F001020A6090F84410036C17
:1004400001F01C02012101FA02F25A6080F8251025
:10045000002180F82410816B01B18847204610BD2F
:10046000F0B4016C0C6801680D6890F8442002F04B
:100470001C06042202FA06F3234211D06B070FD5A3
:100480000B689B0603D40B6823F004030B6090F801
:10049000441001F01C018A40016C4A60016B1DE0B0
:1004A000022303FA06F727424FF0000C4FF0010237
:1004B00018D0AF0716D50C68A40605D40C6824F034
:1004C0000A040C6080F8252090F8441001F01C010B
:1004D0008B40016C4B6080F824C0C16A00291AD09F
:1004E000F0BC08470823B340234214D02B0712D591
:1004F0000B6823F00E030B6090F84410036C01F0BE
:100500001C0102FA01F15960C26380F8252080F8CD
:1005100024C0416BE2E7F0BC7047000070B568B1E1
:100520002B4C036814212B4AA34209D22A4C1C44A9
:10053000B4FBF1F18900C0E910210BE0012070BD8E
:10054000234C64421C44B4FBF1F18900416420490E
:1005500008390164022180F825101C6847F6F07103
:100560008C43D0E902152943D0E904563543294389
:1005700085692943C5692943056A294321431960CF
:100580008168B1F5804F19D0036C0F21934202D1DD
:1005900052F8A83F02E00E4AA032136890F8444097
:1005A00004F01C04A1408B43136090F84430416870
:1005B00003F01C0399401368194311600021C163C3
:1005C000012280F8252080F82410084670BD000024
:1005D0000804024000000240F8FFFDBF70B5044669
:1005E00000F02EF90546601C02D00448007804444F
:1005F00000F026F9401BA042FAD370BD080000208D
:1006000010B542F20F70401EFDD24FF40051094860
:1006100000F00BF900280CD10748016829B1012925
:1006200005D0022905D1002102E0012100E00221CC
:10063000016010BD0008004804000020044910B506
:100640000A68024202D00860FFF7DAFF10BD00001E
:10065000140401402DE9F04FDFF8AC91002303258D
:10066000A9F1040B85B04FF0010C0F2709F1040A22
:10067000ABF1040EBFE000BF0CFA03F6324075D0B8
:100680000C7904F00304012C01D0022C1BD18468E6
:1006900000945C0005FA04F80494009C24EA080421
:1006A0000094D1F80C80049C08FA04F8009C48EAF5
:1006B0000408C0F808804468B4430E79C6F30016F5
:1006C0009E40264346600C79E443A4070AD0C468E0
:1006D0004FEA430805FA08F6B4438E6806FA08F6AE
:1006E0002643C6600C7904F00304022C10D1DC0808
:1006F00000EB84040294246A5E074FEAD66807FA86
:1007000008F6B4430E6906FA08F62643029C2662F0
:1007100004684FEA430805FA08F6B4430E7906F078
:10072000030606FA08F6264306604C6814F4403FB8
:1007300060D0364C266E46F001062666246E23F005
:10074000030604F001040094314C34440294A4687C
:100750009E074FEA167807FA08F6B443B0F1904FB7
:1007600005D02C4EB04204D1012612E042E0002612
:100770000FE0294EB04201D102260AE0274EB042D6
:1007800001D1032605E0264EB04201D1042600E047
:10079000072606FA08F62643029CA660D9F80060F0
:1007A0004C46D1F8048096435FEAC82800D516432A
:1007B0002660DAF800405646D1F8048094435FEA98
:1007C000882800D514433460DBF800405E46D1F839
:1007D000048094435FEA883800D514433460DEF81F
:1007E00000407646D1F8048094435FEAC83800D5CB
:1007F000144334605B1C0A6832FA03F47FF43CAFA4
:1008000005B000F00FB800000804014000100240DD
:10081000000001400004004800080048000C0048A7
:100820000010004830BCBDE8C08F0069084000D00F
:10083000012070470AB181617047816270470000F2
:1008400001488068704700000800002090F84120AF
:10085000202A24D190F84020012A20D0012280F8BB
:100860004020242280F841200268136823F001030D
:1008700013600268136823F48053136002681368DE
:100880000B43136001680A6842F001020A602021EC
:1008900080F84110002180F840100846704702207F
:1008A000704790F84120202A22D190F84020012A58
:1008B0001ED0012280F84020242280F841200268C6
:1008C000136823F0010313600268136823F4706354
:1008D00043EA0121116001680A6842F001020A60DE
:1008E000202180F84110002180F840100846704710
:1008F0000220704770B5040004D094F84100002530
:1009000010B106E0012070BD84F84050204600F090
:100910004DF8242084F841002068016821F001018D
:1009200001606068216820F070600861206881685B
:1009300021F400418160E0680128A06807D040F4FC
:10094000044021688860E068022803D006E040F493
:100950000040F6E721684FF4006048602068416875
:10096000114A114341602068C16821F40041C1600F
:10097000D4E904010843A16940EA01202168C86064
:10098000D4E907010843216808602068016841F044
:10099000010101606564202084F84100256384F82A
:1009A0004250002070BD00000080000210B5A0B0D1
:1009B000044614211AA8FFF746FC68216846FFF791
:1009C00042FC17492068884228D14020009000202E
:1009D0000D90684600F0FCF808B1FFF77EFC114C62
:1009E000E06C40F00200E064E06C1AA900F0020044
:1009F0001F904FF440701A9012201B9001201C9001
:100A00001D9004201E900848FFF724FEA06D40F4BE
:100A10000010A065A06D00F400101F9020B010BD64
:100A20000054004000100240000400480248816861
:100A3000027811448160704708000020094810B511
:100A40000168002441F480710160032000F072F815
:100A5000002000F009F808B1012401E000F026F8B8
:100A6000204610BD0020024070B50E4E0546002401
:100A7000307898B14FF47A71B1FBF0F00A49096807
:100A8000B1FBF0F000F0B6FE40B9102D06D2002206
:100A90002946501E00F02EF8756000E00124204623
:100AA00070BD00000800002014000020094808B5AF
:100AB000016E41F001010166016E01F0010100913A
:100AC000816D41F080518165806D00F08050009013
:100AD00008BD000000100240002809DB00F01F02E2
:100AE000012191404009800000F1E020C0F8001190
:100AF00070470000F0B40E4B1B680C46C3F3022392
:100B0000C3F10705042D00D90425191D072901D2B9
:100B1000002300E0DB1E012606FA05F1491E2140F4
:100B200099409E40761E16403143F0BC01F052BE03
:100B30000CED00E0064900F0070208684FF6FF03DD
:100B4000184040EA0220034A104308607047000042
:100B50000CED00E00000FA051649B0F5007F0868CA
:100B6000C0F3412009D0022805D0086820F4C060F5
:100B700040F480600860002070470128FBD00868BE
:100B800020F4C06040F4007008600B483222006816
:100B900050430A4AB0FBF2F0401C00E0401E4A6994
:100BA000520501D50028F9D148694005E3D5032055
:100BB00070470000007000401400002040420F0009
:100BC0000248006800F4C0607047000000700040F8
:100BD0002DE9F84F044600270088C04D3E46000529
:100BE00015D5E06C60B1B0F5000F04D0B0F5400F42
:100BF0002BD001270AE0E86840F48030E86024E068
:100C00000021201D01F07CF907001ED03E4620681F
:100C100080033AD5A86D4FF00008C00009D4A86D34
:100C200040F08050A865A86D4FF0010800F080509A
:100C30000090DFF8ACA2DAF8001041F48071CAF835
:100C40000010FFF7FDFD814610E0D5F88800E16C4B
:100C500020F440000843C5F88800D8E7FFF7F0FD0E
:100C6000A0EB0900022801D9032705E0DAF800000B
:100C7000C005F3D5002F7CD04FEA0706B8F1000F6E
:100C800003D0A86D20F08050A8652078C00707D059
:100C9000D5F88800216A20F003000843C5F88800D1
:100CA0002078800707D5D5F88800616A20F00C000D
:100CB0000843C5F888002078400707D5D5F8880094
:100CC000A16A20F030000843C5F8880020780007AA
:100CD00007D5D5F88800E16A20F0C0000843C5F8C0
:100CE00088002078800607D5D5F88800216B20F48D
:100CF00040600843C5F888002088800507D5D5F8EE
:100D00008800616C20F440200843C5F888002088E2
:100D1000400507D5D5F88800A16C20F440100843A1
:100D2000C5F888002078400607D5D5F88800616BA3
:100D300020F440500843C5F888002078000607D505
:100D4000D5F88800A16B20F440400843C5F888001E
:100D50002088C00507D5D5F88800E16B20F4403025
:100D60000843C5F888002068C00209D5D5F89C0062
:100D700000E01CE0216C20F003000843C5F89C0053
:100D800020884FF0006780044FF080684ED5D5F87A
:100D90008800216D20F040600843C5F88800206D70
:100DA000B8423BD1E86840F48010E8603EE0D5F8F6
:100DB000900010F4407014D0616E814211D0D5F8CB
:100DC0009000D5F8901020F4407041F48031C5F8BF
:100DD0009010D5F8901021F48031C5F89010C5F826
:100DE0009000C00711D0FFF72BFD074641F288396C
:100DF00007E000BFFFF724FDC11B494501D90326C9
:100E00003CE7D5F890008007F4D5D5F89000616EE6
:100E100020F440700843C5F890002FE7404505D105
:100E20000121201D01F06CF800B106462068000386
:100E300017D5D5F88800616D20F040600843C5F8EB
:100E40008800606DB84204D1E86840F48010E86022
:100E500007E0404505D10121201D01F051F800B106
:100E600006462068400317D5D5F88800A16D20F00C
:100E700040600843C5F88800A06DB84204D1E86816
:100E800040F48010E86007E0404505D10121201DB5
:100E900001F036F800B106462088400411D5D5F897
:100EA0008800E16D20F040500843C5F88800E06DEF
:100EB000B0F1805F05D10221201D01F021F800B1C1
:100EC00006462068C00306D555F8880F216E20F02D
:100ED000004008432860304600F004B8001002408B
:100EE0000070004018BCBDE8E08F00002DE9F0471D
:100EF0000F4605006BD0494E306800F00700B8423D
:100F000009D2306820F0070038433060306800F0C4
:100F10000700B8425BD12878414C80070AD5A86801
:100F2000A16801F0F001884204D9A16821F0F00124
:100F30000143A1602878C0072CD06868032811D02D
:100F4000022812D0216898B1490500293FDAA1682A
:100F500021F003010143A160FFF772FC804641F2DA
:100F6000883910E021688901EFE721688903ECE7FF
:100F70008907EAE7FFF764FCA0EB0801494502D9BD
:100F80000320BDE8F087A068696800F00C00B0EBB2
:100F9000810FEFD1287880070AD5A868A16801F0F1
:100FA000F001884204D2A16821F0F0010143A16060
:100FB000306800F00700B8420BD9306820F0070015
:100FC00038433060306800F00700B84201D001209B
:100FD000D7E72878400705D5A068E96820F4E060E5
:100FE0000843A0602878000706D5A068296920F486
:100FF000605040EAC100A06000F03EF8A168094AD4
:10100000C1F30311515C01F01F01C840064908609B
:1010100006480068BDE8F047FFF726BD0020024003
:10102000001002401C2C0008140000200C000020BE
:101030000548064900688968054AC1F30221515CE8
:1010400001F01F01C840704714000020001002404A
:101050005C2C00080548064900688968054AC1F308
:10106000C221515C01F01F01C840704714000020EC
:10107000001002405C2C000870B52549002318467A
:101080008A68CC6812F00C0204F00306214C4FEA87
:10109000640509D00C2A05D0042A32D0082A00D1D0
:1010A000284670BD012E10D10B681B0704D4D1F85F
:1010B0009430C3F3032302E00B68C3F30313164E0B
:1010C00056F82330DAB10C2AEBD1C86800F00300DF
:1010D000022818D0032818D01846CA68CB68C2F373
:1010E0000212C3F306234343521CB3FBF2F2C86857
:1010F000C0F34160401C4000B2FBF0F070BD1846E8
:1011000070BD204670BD2046E7E72846E5E70000B1
:10111000001002400024F4002C2C00082DE9F843B4
:1011200004006FD0FA4DA86800F00C06E86800F0E3
:1011300003072078C00664D576B10C2E01D1012FAB
:101140000AD0A069002828687AD040F00100286001
:10115000FFF776FB80465DE02868800702D5A0692E
:101160000028DED0216A2868000703D5286800F02F
:10117000F00004E0D5F89400F02202EA1010814259
:1011800016D9084600F052FF00283BD1286840F0ED
:10119000080028602868216A20F0F00008432860D1
:1011A0006868E16920F47F4040EA0120686016E049
:1011B000286840F0080028602868216A20F0F000C4
:1011C000084328606868E16920F47F4040EA012014
:1011D000686026B9206A00F029FF0028D5D1FFF702
:1011E0004BFFA968CB4AC1F30311515C01F01F0109
:1011F000C840C9490860C9480068FFF735FC0028A5
:101200007ED12EE0CAE000BFFFF71AFBA0EB08007A
:10121000022876D828688007F6D5286840F00800AC
:1012200028602868216A20F0F00008432860686878
:10123000E16920F47F4040EA0120686011E0FFE7A7
:1012400020F001002860FFF7FBFA804606E000BFAF
:10125000FFF7F6FAA0EB08000228DAD82868800722
:10126000F6D42078C00740D0082E18D00C2E01D11B
:10127000032F14D06068B0F5803F17D0B0F5A02FD1
:10128000286817D020F480302860286820F4802057
:1012900028606068E0B1FFF7D3FA804614E0286860
:1012A000800322D56068002878D01EE0286840F4CA
:1012B0008030EDE740F480202860F7E7FFF7C0FAC0
:1012C000A0EB08006428A4D828688003F6D50CE0B9
:1012D000FFF7B6FA804605E0FFF7B2FAA0EB080088
:1012E000642896D828688003F6D4207880073BD5F8
:1012F000042E11D00C2E01D1022F0DD0E06801E098
:10130000AAE1FFE0002828681ED040F48070286021
:10131000FFF796FA07460CE0286840050CD5E06810
:101320000028C1D008E000BFFFF78AFAC01B0228DE
:1013300093D828684005F7D56868217C20F0FE40E6
:1013400040EA016068600FE020F480702860FFF7D9
:1013500077FA074605E000BFFFF772FAC01B0228C4
:10136000B1D828684005F7D42078000729D56069EE
:101370000028D5F8940012D040F00100C5F8940080
:10138000FFF75EFA074604E0FFF75AFAC01B02288F
:1013900099D8D5F894008007F6D512E02BE120F01B
:1013A0000100C5F89400FFF74BFA074605E000BFBF
:1013B000FFF746FAC01B022885D8D5F894008007AD
:1013C000F6D42078400766D5A86D0027C00008D461
:1013D000A86D40F08050A865A86D012700F08050EE
:1013E00000904F480168C90512D40168814641F454
:1013F00080710160FFF724FA804605E0FFF720FACC
:10140000A0EB080002287DD8D9F80000C005F5D56A
:10141000A068012816D00528D5F8900017D020F034
:101420000100C5F89000D5F8900020F0040000BF3E
:10143000C5F89000A06841F28839C0B1FFF700FA02
:1014400080460FE0D5F8900040F00100F0E740F052
:101450000400C5F89000F5E7FFF7F2F9A0EB0801EA
:1014600049454FD8D5F890008007F5D50EE0FFF735
:10147000E7F9804606E000BFFFF7E2F9A0EB0801BC
:1014800049453FD8D5F890008007F5D41FB1A86D25
:1014900020F08050A8652078800628D5606A002852
:1014A000D5F8980012D040F00100C5F89800FFF779
:1014B000C7F9074605E000BFFFF7C2F9C01B0228C5
:1014C00020D8D5F898008007F6D510E020F001006C
:1014D000C5F89800FFF7B4F9074604E0FFF7B0F944
:1014E000C01B02280ED8D5F898008007F6D4A06A51
:1014F000F0B3022816D00C2E7DD0286820F0807022
:10150000286000E0A7E0FFF79BF90446A6E0000092
:10151000001002401C2C0008140000200C000020C9
:1015200000700040E868E26A00F00301914228D1AF
:10153000216B00F0700209011039914221D1626BD8
:1015400000F4FE41B1EB022F1BD194F8382000F0DB
:101550007841B1EBC26F14D1A18F00F4C0024908E9
:101560004905A1F5001191420BD194F8401000E01B
:101570006AE04908490600F0C060A1F100718142AB
:101580004BD00C2E73D02868400170D4286820F00E
:1015900080702860FFF754F9064604E0FFF750F921
:1015A000801B022857D828688001F7D4F4E90B0182
:1015B0006FF00F0202EB01110843218A520449081F
:1015C00002EB4151A26841EA02210843217D4FF01C
:1015D0007E42490802EB41610843217B40EAC16039
:1015E000E968244A11400843E860286840F08070A8
:1015F0002860E86800E03AE040F08070E860FFF7BB
:101600001FF9044605E000BFFFF71AF9001B022886
:1016100021D828688001F7D527E02868800124D4E4
:10162000286840F080702860E86840F08070E860CA
:10163000FFF706F9044604E0FFF702F9001B022851
:1016400009D828688001F7D50FE000BFFFF7F8F848
:10165000001B022802D90320BDE8F8832868800116
:10166000F4D4E86804490840E8600020F4E7012069
:10167000F2E700008C809D01FCFFEEFE70B50400D7
:1016800009D0606A002540B125616561A56294F8C2
:101690005D0040B10CE0012070BD6068B0F5827F54
:1016A000F4D0E561F2E784F85C50204600F056F88B
:1016B000022084F85D002068016821F0400101608B
:1016C000E1684FF4E062914201D9002001E04FF45B
:1016D0008050B1F5706F02D0914200D0A562A18810
:1016E000228901F4827102F404421143227C02F047
:1016F00002021143227D02F001021143228B02F407
:1017000000721143227F02F03802114394F8202026
:1017100002F080021143228D02F40052114322682C
:101720001160A169042202EA114194F8242000F416
:10173000805002F01002114394F8342002F00802A5
:101740001143A28902F47062114301432068416091
:101750002566012084F85D00002070BD70B586B05C
:10176000064614216846FEF76EFD1E493068884221
:1017700035D11D49086E40F480500866086E00F4AB
:1017800080500590C86C40F00100C864C86C00250A
:1017900000F001000590E02000900220CDE9010555
:1017A000032003900520049069464FF09040FEF717
:1017B00051FF0F4C0D482060012060601020C4E9EB
:1017C00002058020C4E90405A561E5612046256283
:1017D000FEF7A4FE08B1FEF780FD7465A66206B0B0
:1017E00070BD000000300140001002403000024097
:1017F000FC00002010B5401EB0F1807F01D3012015
:1018000010BD4FF0E02460610F21601700F0E2FF8F
:101810000020A06107202061002010BD70477047A4
:1018200070470146806FC96F084370472DE9F0414A
:1018300002680446D0691168936840F60F05284293
:101840004FF0000505D186067ED58E067CD5616EEB
:101850001BE1994F03F001060F40374374D0C707CF
:1018600009D0CF0507D501271762D4F8802042F0B0
:101870000102C4F8802082070AD5DA0708D0276859
:1018800002223A62D4F8802042F00402C4F8802098
:1018900042070AD5DA0708D0236804221A62D4F86E
:1018A000802042F00202C4F8802002070CD501F02B
:1018B0002002324308D0236808221A62D4F880201C
:1018C00042F00802C4F8802002050BD54A0109D570
:1018D00023684FF400621A62D4F8802042F020029C
:1018E000C4F88020D4F88020002A35D0800605D5A1
:1018F000880603D5616E09B120468847D4F8800078
:1019000021688968490602D410F0280F26D02046A5
:1019100000F0B4FC2068806840061AD520680830C2
:1019200050E8001F21F0400140E80012002AF5D1E4
:10193000206F70B161498163206FFEF76AFD002856
:101940000AD0206F816B01E00EE02046BDE8F04137
:1019500008472046FFF764FFBDE8F0812046FFF707
:101960005FFFC4F88050F7E7276E2026012F7BD158
:10197000C70679D5CF0677D5102010622068806819
:10198000400641D5216F086840680004000CE3D090
:10199000B4F858208242DFD9A4F85A0008680068D9
:1019A00080062AD4206850E8001F21F4807140E8A6
:1019B0000012002AF6D12068083050E8001F21F0FC
:1019C000010140E80012002AF5D12068083050E8F3
:1019D000001F21F0400140E80012002AF5D1E6671F
:1019E0002566216851E8000F20F0100041E8000250
:1019F000002AF6D1206FFEF7E7FCB4F85800B4F8DF
:101A00005A10401A81B22AE0B4F85800B4F85A10BB
:101A1000401A81B2B4F85A0000289DD000299BD00A
:101A2000226852E8000F20F4907042E80003002B77
:101A3000F6D12068083050E8002F22F0010240E87B
:101A40000023002BF5D1E66725666566226852E81B
:101A5000000F20F0100042E80003002BF6D12046D2
:101A6000FFF7DCFE78E7FFE7C70209D55B0207D581
:101A70004FF4801010622046BDE8F041FFF7CFBE62
:101A8000020606D50A0604D5A16E00297FF45DAFD3
:101A900062E74006E6D54806E4D52046026852E8EB
:101AA000001F21F0400142E80013002BF6D18667A9
:101AB000856600F010F94FE7200100046922000854
:101AC00010B5040002D0A06F10B107E0012010BDD6
:101AD000002084F87400204600F026F82420A06737
:101AE0002068016821F001010160204600F08AFCB5
:101AF0000128ECD0606A10B1204600F023FB20687A
:101B0000416821F4904141602068816821F02A01F8
:101B100081602068016841F0010101602046BDE854
:101B2000104000F073BB000030B5A1B00446142192
:101B30001AA8FEF788FB68216846FEF784FB1A495D
:101B4000206888422ED10224002568460995009419
:101B5000FFF73EF808B1FEF7C0FB1448816D41F471
:101B600000318165816D01F400311F91C16C41F03C
:101B70000101C164C06C1AA900F001001F900C2083
:101B800081E8310003201D9007201E904FF0904007
:101B9000FEF760FD002211462620FEF7ABFF26204F
:101BA000FEF79AFF21B030BD004400400010024013
:101BB00030B4C36F202B20D1E1B1DAB190F874308A
:101BC000012B1AD0012380F87430002303660C4CDB
:101BD0000368A3420BD05B681B0208D5046854E875
:101BE000003F43F0806344E80035002DF6D130BC5F
:101BF00000F018BD012030BC70470220FBE7000058
:101C00000080004010B50448FFF70BFE2228FAD0F0
:101C100002490120087010BD44010020000000208E
:101C20002DE9F8430446806F1F4616460D462028CE
:101C30004FD1CDB1C6B194F87400012849D001202C
:101C400084F874004FF00008C4F880802120A06759
:101C5000FEF7F6FDA4F850608146A4F85260A06833
:101C6000B0F5805F03D004E00120BDE8F88320696F
:101C700028B12E465FF0000584F8748010E000263D
:101C8000FAE78021204600F029FDB8B9C6B116F860
:101C9000010B21680885B4F85200401EA4F85200D8
:101CA000B4F852004B464FF0000200970028E8D1EC
:101CB0004FF04001204600F011FD30B10320D4E781
:101CC00035F8020BC0F30800E3E72020A0670020EE
:101CD000CBE70220C9E77047FEE700000A4810B5CD
:101CE0000849016000210171417141618161012157
:101CF0000162FEF71BFB002803D0BDE81040FEF791
:101D0000ECBA10BD0030024020000020094808B5A0
:101D1000816C41F001018164806C002200F00100BF
:101D2000009011460D20FEF7E5FEBDE808400D20AD
:101D3000FEF7D2BE001002402DE9F04387B0142117
:101D40006846FEF780FA3048C16C41F00401C16476
:101D5000C16C01F004010591C16C41F00101C16445
:101D6000C16C01F001010591C16C41F00201C16437
:101D7000C06C264F00F00200059000220821384672
:101D8000FEF758FD4FF480764FF090480022314620
:101D90004046FEF74FFDDFF878900022402148468C
:101DA000FEF748FD700100904FF404100124CDE9C6
:101DB000010469463846FEF74DFC0820CDE90004D1
:101DC000002569463846CDE90245FEF743FC0096FA
:101DD000CDE90145694640460395FEF73BFC4020AE
:101DE0008DE831000220039069464846FEF732FC38
:101DF000002211462820FEF77DFE2820FEF76CFE0B
:101E000007B0BDE8F0830000001002400008004861
:101E100000040048134810B511490160124941609F
:101E200000210122C0E90212016141618161C161A9
:101E30000162FEF75FFD08B1FEF74FFA0021094885
:101E4000FEF704FD08B1FEF748FA00210548FEF749
:101E500028FD002803D0BDE81040FEF73EBA10BDB3
:101E60000054004044000020EC9C9010124810B533
:101E7000104901604FF48271416000214FF4E0622B
:101E8000C0E902124FF400720161C0E90512C1619C
:101E9000016207224162C0E90A120163082141631D
:101EA000FFF7ECFB002803D0BDE81040FEF715BAA1
:101EB00010BD000000300140980000200D4810B512
:101EC0000B4901604FF4E1314160002181600C2237
:101ED000C160C0E904128161C16101624162FFF722
:101EE000EFFD002803D0BDE81040FEF7F6B910BDA5
:101EF0000044004044010020FEE7FEE77047000078
:101F00002DE9F041444C05468846E06800268107EB
:101F100028680DD0E16801F00301814216D1A8B113
:101F2000E0686968C0F30210401C88420ED120E0CE
:101F3000012804D0022805D0032807D108E0216831
:101F4000890701E021684905002907DB01265FE0D8
:101F50002168890302D421684903F5E7E1686A68CA
:101F60006FF00F0321F0730103EB021211430143E1
:101F7000E160206820F080602060FEF761FC074689
:101F800005E000BFFEF75CFCC01B022837D82068C4
:101F90000001F7D4B8F1000F18D0B8F1010F1DD02F
:101FA000287D4FF07E41400801EB4060A96840EA7F
:101FB00001202169194A114008432061206840F03E
:101FC00080602060FEF73CFC07461AE0A868297B89
:101FD000000240EAC1602169114AECE7288A1149F0
:101FE000400801EB4050A96840EA012021690E4AEF
:101FF000E1E700BFFEF724FCC01B022801D903263D
:1020000006E020680001F5D52069A9690843206130
:102010003046BDE8F081000000100240FF80FFF96B
:10202000FF80FF070000E0FFFF809FFFF8B51C4D19
:1020300006460024A86DC00002D5FEF7C1FD0DE0E4
:10204000A86D40F08050A865A86D00F08050009009
:10205000FEF7B6FDA96D21F08051A965B0F5007FAE
:1020600004D0802E07D94FF003040AE0802E08D94F
:10207000A02E01D804E001D1022402E0702E00D18C
:1020800001240848016821F007012143016000682C
:1020900000F00700A04201D00120F8BD0020F8BDEB
:1020A00000100240002002407047000010B5FEF70B
:1020B000BDFC02480168491C016010BD18000020E9
:1020C00000B597B044216846FEF7BDF8142111A869
:1020D000FEF7B9F84FF40070FEF73EFD08B172B696
:1020E000FEE70220C10103914021009004910A9073
:1020F0000121CDE90B010A210D910721CDE90E1037
:1021000010906846FFF70AF808B172B6FEE70F2094
:102110001190032012900020139014901590042128
:1021200011A8FEF7E3FE002801D072B6FEE717B053
:1021300000BD00000248016841F470010160704771
:1021400088ED00E090F82410C90706D001684A68BD
:10215000836A22F400321A434A6090F824108907F7
:1021600006D501684A68C36A22F480321A434A607D
:1021700090F82410490706D501684A68036B22F4D9
:1021800080221A434A6090F82410090706D5016896
:102190004A68436B22F400421A434A6090F82410C4
:1021A000C90606D501688A68836B22F480521A43F7
:1021B0008A6090F82410890606D501688A68C36B86
:1021C00022F400521A438A6090F82410490611D56F
:1021D00001684A68036C22F480121A434A60016C59
:1021E000B1F5801F06D101684A68436C22F4C00231
:1021F0001A434A6090F82410090606D501684A6817
:10220000806C22F4002202434A607047F8B5002631
:102210000446C0F88060FEF713FB0546206800689E
:102220006FF07E47000708D52B4600224FF40011BF
:102230002046009700F052FA60B920680068400715
:102240000AD52B4600224FF480012046009700F06B
:1022500045FA08B10320F8BD2020A067E067266694
:1022600084F874600020F8BD10B5806A0021A0F8E1
:102270005A10A0F85210FFF7D3FA10BD016851E8C8
:10228000002F22F4907241E80023002BF6D1016860
:10229000083151E8002F22F0010241E80023002B11
:1022A000F5D1016E012908D1026852E8001F21F022
:1022B000100142E80013002BF6D12021C167002154
:1022C00001664166704710B5B0F85C20C36F0168C5
:1022D000222B04D0088B40F00800088310BD898CA5
:1022E000436D11401980416D891C4165B0F85A1049
:1022F000491EA0F85A10B0F85A100029EED1026811
:1023000052E8001F21F4907142E80013002BF6D12F
:102310000168083151E8002F22F0010241E8002352
:10232000002BF5D12021C16700214166026E012AF0
:1023300002D0FFF767FC10BD0166026852E8001F7B
:1023400021F0100142E80013002BF6D10168CA69A0
:10235000D243D20601D410220A62B0F85810FFF717
:102360005DFA10BD10B5B0F85C20C36F0168222B78
:1023700004D0088B40F00800088310BD898C114000
:10238000426D1170416D491C4165B0F85A10491EEB
:10239000A0F85A10B0F85A100029EED1026852E89D
:1023A000001F21F4907142E80013002BF6D1016860
:1023B000083151E8002F22F0010241E80023002BF0
:1023C000F5D12021C16700214166026E012A02D0A9
:1023D000FFF718FC10BD0166026852E8001F21F0EB
:1023E000100142E80013002BF6D10168CA69D243FC
:1023F000D20601D410220A62B0F85810FFF70EFA84
:1024000010BD00002DE9F041044601688068226992
:10241000E3691043626900251A431043784F0A6844
:10242000784B1A4002430A6020684168E26821F450
:102430004051114341602168A069B94201D0226A2C
:1024400010438A6822F4306202438A606E4923682E
:102450006E488B420DD1D0F8880010F0030006D0F2
:10246000012856D0022852D003283FD153E0012141
:102470003DE067498B420BD1D0F8880010F00C008A
:1024800043D0042845D0082841D00C282ED142E062
:1024900060498B420BD1D0F8880010F0300034D066
:1024A000102836D0202832D030281FD133E05A49A6
:1024B0008B420BD1D0F8880010F0C00025D0402806
:1024C00027D0802823D0C02810D124E0BB420DD1D2
:1024D000D0F8880010F4406017D0B0F5806F18D0A5
:1024E000B0F5006F13D0B0F5406F14D010214B4AF7
:1024F00000264FF40040BB422FD171B102290FD00A
:1025000004290FD0082973D10FE00021EFE7022141
:10251000EDE70421EBE70821E9E7FEF789FD03E099
:10252000104602E0FEF7A8FDF0B3626802EB42013C
:1025300081425DD8B0EB023F5AD8010E0302500829
:10254000181871410023FDF743FE354AA0F540718C
:1025500091424DD82168C8604BE0E3694FF6EF77B0
:10256000834228D1092943D2DFE801F005080B4254
:102570000D4242421000FEF75BFD06E0FEF76AFDE9
:1025800003E0104602E0FEF777FD68B141006068A5
:1025900001EB5001B1FBF0F0A0F11001B94227D8D6
:1025A0004FF6F071014000E023E0C0F34200014328
:1025B0002068C1601DE009291AD2DFE801F0050892
:1025C0000B190D1919191000FEF732FD06E0FEF780
:1025D00041FD03E0104602E0FEF74EFD48B16168A0
:1025E00000EB5100B0FBF1F0A0F11001B94205D9A8
:1025F000012566662846A666BDE8F08180B2A9E797
:1026000000800040F369FFEF0038014000100240F5
:102610000044004000480040004C00400024F4000A
:10262000FFFC0F0030B54165A0F85820A0F85A20F3
:102630000022426681684FF48055FF23A94204D1ED
:10264000016971BB40F2FF1131E07F2439B3B1F170
:10265000805F29D0A0F85C20C0F880202221C167CB
:102660000168083151E8003F43F0010341E80034BC
:10267000002CF5D18168A94201D10169E9B1154960
:10268000416680F874200169C9B1026852E8001FF0
:1026900041F4907142E80013002BF6D118E0016973
:1026A00041B9A0F85C30D7E7016919B13F21A0F822
:1026B0005C10D1E7A0F85C40CEE70749E0E702688C
:1026C00052E8001F41F0200142E80013002BF6D130
:1026D000002030BD65230008C72200082DE9F0471F
:1026E0009A4617460E4604464FF000094FF0200860
:1026F000089D4AE0681C48D0FEF7A2F8A0EB0A004B
:10270000A8422AD84DB32068016849073DD5C06961
:10271000C043000539D421684FF400600862206886
:1027200050E8001F21F4D07140E80012002AF6D1D1
:102730002068083050E8001F21F0010140E8001235
:10274000002AF5D1C4F87880C4F87C80C4F8808071
:1027500084F874900320BDE8F087216851E8000FE9
:1027600020F4D07041E80002002AF6D12068083039
:1027700050E8001F21F0010140E80012002AF5D1C5
:10278000C4F87880C4F87C80E2E72068C06936EA43
:10279000000004D00020B842ACD00020DBE70120CC
:1027A000F9E700000148FFF741B8000044010020AC
:1027B000FEE700000FB4054B10B503A9044A0298C8
:1027C00000F028F810BC5DF814FB0000DD2A0008BA
:1027D0001C0000200907090E002804DB00F1E0209E
:1027E00080F80014704700F00F0000F1E02080F83E
:1027F000141D704702E008C8121F08C1002AFAD150
:1028000070477047002001E001C1121F002AFBD170
:10281000704700002DE9FF4F8DB09B460F460446E0
:10282000002606E025280BD05A460F999047641CD5
:10283000761C20780028F5D111B0304600F04AB956
:102840000025A8460122984900E0054314F8013FFD
:10285000203B02FA03F00842F7D120782E2817D146
:1028600014F8010F45F004052A280ED06FF02F024E
:102870002078A0F1300109290AD808EB880102EB81
:10288000410100EB0108641CF2E757F8048B641C5B
:1028900020786C280DD004DC4C2812D06A2811D185
:1028A00004E074280DD07A280CD10AE045F4001514
:1028B00007E0617845F48015814202D1641C05F57A
:1028C0008015641C2078692844D008DC0028B3D027
:1028D000582867D063280FD0642808D13AE07028C0
:1028E00065D0732812D075285AD078285AD05A4605
:1028F0000F999047761CD5E017F8040B8DF800006F
:1029000000208DF80100E946012003E057F8049B00
:102910004FF0FF3069074FF0000501D40AE06D1C4D
:1029200045450DDA8542FADB19F805100029F6D184
:1029300006E06D1C8542FCDB19F805100029F8D172
:102940002E4404E019F8010B5A460F9990476D1E6A
:10295000F8D2A7E00A200021CDE90801C5F3025012
:1029600002280CD001CFC117021E71F100020CDA4F
:102970000023D0EB030063EB01012D2208E0FF1DD3
:1029800027F00707F7E80201EEE72A0504D52B2216
:102990008DF8282001223CE0EA073AD02022F7E710
:1029A0000A2000E010200021CDE9080107E01020F6
:1029B000002145F00405CDE908014FF00808C5F3F2
:1029C0000250022810D001CF00214FF0000A2A0740
:1029D00020D52278702A0DD0DDE908C38CF0100CC8
:1029E0005CEA030C0CD015E0FF1D27F00707F7E8A1
:1029F0000201EAE740228DF828204FF0010A0CE09E
:102A000050EA010306D030238DF828308DF82920B4
:102A1000022292462278582A04D024A20DF12009DD
:102A20000B9209E026A2F9E7DDE90823FDF7D0FBC8
:102A30000B9B9B5C09F8013D50EA0102F4D1ADEB20
:102A4000090020300890680701D44FF00108089968
:102A5000884503DD0898A8EB000000E000208046D0
:102A6000002506E00AA85A46405D0F9990476D1C64
:102A7000761C5545F6DB04E030205A460F99904706
:102A8000761CB8F10001A8F10108F5DC05E019F8A1
:102A9000010B5A460F999047761C0899481E0890DA
:102AA0000029F4DC641CC4E609280100303132330B
:102AB000343536373839616263646566000000007A
:102AC0003031323334353637383941424344454664
:102AD0000000000030BCBDE8C08F000013B54FF40B
:102AE0007A73012269460248FFF79AF801201CBD5B
:102AF00044010020C2B04FF480716846FDF7A3FB8B
:102B0000FDF79CFFFFF7DCFAFFF716F9FFF7D6F9A0
:102B1000FFF7FCF8FFF7AAF9FFF7E0F8FFF77AF9FB
:102B2000012208211F48FDF785FEFF208DF80000D7
:102B3000EE208DF80100CC208DF8020001208DF8E8
:102B400000010B208DF801011F20174C8DF80201A8
:102B500000202070032240A91448FFF729F84FF401
:102B6000FA6502E02846FDF739FD20780128F9D101
:102B70004FF47A759DF800110DA0FFF71BFE9DF82C
:102B8000011112A0FFF716FE9DF8021116A0FFF723
:102B900011FE21781BA0FFF70DFE2846FDF71EFD54
:102BA000E8E7000000080048000000204401002081
:102BB000554152545F434F4D4D414E445B305D2073
:102BC0003A20307825780D0A000000005541525413
:102BD0005F434F4D4D414E445B315D203A2030788C
:102BE00025780D0A00000000554152545F434F4DB7
:102BF0004D414E445B325D203A20307825780D0AF5
:102C000000000000554152545F5452414E535F4FF3
:102C1000564552203A2025640D0A000000000000AD
:102C2000000000000102030406070809A086010055
:102C3000400D0300801A060000350C0040420F00D2
:102C400080841E0000093D0000127A000024F40078
:102C500000366E010048E801006CDC020000000054
:102C600001020304842C0008000000202000000062
:102C7000F4270008A42C000820000020A8810000F0
:102C8000042800080000000000000000010000000F
:102C9000100000000000000000093D0000000000DE
:042CA0000000000030
:040000050800019559
:00000001FF
